{
  "_format": "hh-sol-artifact-1",
  "contractName": "AggregationRouterV6",
  "sourceName": "contracts/AggregationRouterV6.mainnet.sol",
  "abi": [
    {
      "inputs": [
        {
          "internalType": "contract IWETH",
          "name": "weth",
          "type": "address"
        }
      ],
      "stateMutability": "nonpayable",
      "type": "constructor"
    },
    {
      "inputs": [],
      "name": "AdvanceEpochFailed",
      "type": "error"
    },
    {
      "inputs": [],
      "name": "ArbitraryStaticCallFailed",
      "type": "error"
    },
    {
      "inputs": [],
      "name": "BadCurveSwapSelector",
      "type": "error"
    },
    {
      "inputs": [],
      "name": "BadPool",
      "type": "error"
    },
    {
      "inputs": [],
      "name": "BadSignature",
      "type": "error"
    },
    {
      "inputs": [],
      "name": "BitInvalidatedOrder",
      "type": "error"
    },
    {
      "inputs": [],
      "name": "ETHTransferFailed",
      "type": "error"
    },
    {
      "inputs": [],
      "name": "ETHTransferFailed",
      "type": "error"
    },
    {
      "inputs": [],
      "name": "EnforcedPause",
      "type": "error"
    },
    {
      "inputs": [],
      "name": "EpochManagerAndBitInvalidatorsAreIncompatible",
      "type": "error"
    },
    {
      "inputs": [],
      "name": "EthDepositRejected",
      "type": "error"
    },
    {
      "inputs": [],
      "name": "ExpectedPause",
      "type": "error"
    },
    {
      "inputs": [],
      "name": "InsufficientBalance",
      "type": "error"
    },
    {
      "inputs": [],
      "name": "InvalidMsgValue",
      "type": "error"
    },
    {
      "inputs": [],
      "name": "InvalidMsgValue",
      "type": "error"
    },
    {
      "inputs": [],
      "name": "InvalidPermit2Transfer",
      "type": "error"
    },
    {
      "inputs": [],
      "name": "InvalidShortString",
      "type": "error"
    },
    {
      "inputs": [],
      "name": "InvalidatedOrder",
      "type": "error"
    },
    {
      "inputs": [],
      "name": "MakingAmountTooLow",
      "type": "error"
    },
    {
      "inputs": [],
      "name": "MismatchArraysLengths",
      "type": "error"
    },
    {
      "inputs": [],
      "name": "OrderExpired",
      "type": "error"
    },
    {
      "inputs": [],
      "name": "OrderIsNotSuitableForMassInvalidation",
      "type": "error"
    },
    {
      "inputs": [
        {
          "internalType": "address",
          "name": "owner",
          "type": "address"
        }
      ],
      "name": "OwnableInvalidOwner",
      "type": "error"
    },
    {
      "inputs": [
        {
          "internalType": "address",
          "name": "account",
          "type": "address"
        }
      ],
      "name": "OwnableUnauthorizedAccount",
      "type": "error"
    },
    {
      "inputs": [],
      "name": "PartialFillNotAllowed",
      "type": "error"
    },
    {
      "inputs": [],
      "name": "Permit2TransferAmountTooHigh",
      "type": "error"
    },
    {
      "inputs": [],
      "name": "PredicateIsNotTrue",
      "type": "error"
    },
    {
      "inputs": [],
      "name": "PrivateOrder",
      "type": "error"
    },
    {
      "inputs": [],
      "name": "ReentrancyDetected",
      "type": "error"
    },
    {
      "inputs": [],
      "name": "RemainingInvalidatedOrder",
      "type": "error"
    },
    {
      "inputs": [],
      "name": "ReservesCallFailed",
      "type": "error"
    },
    {
      "inputs": [
        {
          "internalType": "uint256",
          "name": "result",
          "type": "uint256"
        },
        {
          "internalType": "uint256",
          "name": "minReturn",
          "type": "uint256"
        }
      ],
      "name": "ReturnAmountIsNotEnough",
      "type": "error"
    },
    {
      "inputs": [],
      "name": "SafeTransferFailed",
      "type": "error"
    },
    {
      "inputs": [],
      "name": "SafeTransferFromFailed",
      "type": "error"
    },
    {
      "inputs": [
        {
          "internalType": "bool",
          "name": "success",
          "type": "bool"
        },
        {
          "internalType": "bytes",
          "name": "res",
          "type": "bytes"
        }
      ],
      "name": "SimulationResults",
      "type": "error"
    },
    {
      "inputs": [
        {
          "internalType": "string",
          "name": "str",
          "type": "string"
        }
      ],
      "name": "StringTooLong",
      "type": "error"
    },
    {
      "inputs": [],
      "name": "SwapWithZeroAmount",
      "type": "error"
    },
    {
      "inputs": [],
      "name": "TakingAmountExceeded",
      "type": "error"
    },
    {
      "inputs": [],
      "name": "TakingAmountTooHigh",
      "type": "error"
    },
    {
      "inputs": [],
      "name": "TransferFromMakerToTakerFailed",
      "type": "error"
    },
    {
      "inputs": [],
      "name": "TransferFromTakerToMakerFailed",
      "type": "error"
    },
    {
      "inputs": [],
      "name": "WrongSeriesNonce",
      "type": "error"
    },
    {
      "inputs": [],
      "name": "ZeroAddress",
      "type": "error"
    },
    {
      "inputs": [],
      "name": "ZeroMinReturn",
      "type": "error"
    },
    {
      "anonymous": false,
      "inputs": [
        {
          "indexed": true,
          "internalType": "address",
          "name": "maker",
          "type": "address"
        },
        {
          "indexed": false,
          "internalType": "uint256",
          "name": "slotIndex",
          "type": "uint256"
        },
        {
          "indexed": false,
          "internalType": "uint256",
          "name": "slotValue",
          "type": "uint256"
        }
      ],
      "name": "BitInvalidatorUpdated",
      "type": "event"
    },
    {
      "anonymous": false,
      "inputs": [],
      "name": "EIP712DomainChanged",
      "type": "event"
    },
    {
      "anonymous": false,
      "inputs": [
        {
          "indexed": true,
          "internalType": "address",
          "name": "maker",
          "type": "address"
        },
        {
          "indexed": false,
          "internalType": "uint256",
          "name": "series",
          "type": "uint256"
        },
        {
          "indexed": false,
          "internalType": "uint256",
          "name": "newEpoch",
          "type": "uint256"
        }
      ],
      "name": "EpochIncreased",
      "type": "event"
    },
    {
      "anonymous": false,
      "inputs": [
        {
          "indexed": false,
          "internalType": "bytes32",
          "name": "orderHash",
          "type": "bytes32"
        }
      ],
      "name": "OrderCancelled",
      "type": "event"
    },
    {
      "anonymous": false,
      "inputs": [
        {
          "indexed": false,
          "internalType": "bytes32",
          "name": "orderHash",
          "type": "bytes32"
        },
        {
          "indexed": false,
          "internalType": "uint256",
          "name": "remainingAmount",
          "type": "uint256"
        }
      ],
      "name": "OrderFilled",
      "type": "event"
    },
    {
      "anonymous": false,
      "inputs": [
        {
          "indexed": true,
          "internalType": "address",
          "name": "previousOwner",
          "type": "address"
        },
        {
          "indexed": true,
          "internalType": "address",
          "name": "newOwner",
          "type": "address"
        }
      ],
      "name": "OwnershipTransferred",
      "type": "event"
    },
    {
      "anonymous": false,
      "inputs": [
        {
          "indexed": false,
          "internalType": "address",
          "name": "account",
          "type": "address"
        }
      ],
      "name": "Paused",
      "type": "event"
    },
    {
      "anonymous": false,
      "inputs": [
        {
          "indexed": false,
          "internalType": "address",
          "name": "account",
          "type": "address"
        }
      ],
      "name": "Unpaused",
      "type": "event"
    },
    {
      "inputs": [
        {
          "internalType": "uint96",
          "name": "series",
          "type": "uint96"
        },
        {
          "internalType": "uint256",
          "name": "amount",
          "type": "uint256"
        }
      ],
      "name": "advanceEpoch",
      "outputs": [],
      "stateMutability": "nonpayable",
      "type": "function"
    },
    {
      "inputs": [
        {
          "internalType": "uint256",
          "name": "offsets",
          "type": "uint256"
        },
        {
          "internalType": "bytes",
          "name": "data",
          "type": "bytes"
        }
      ],
      "name": "and",
      "outputs": [
        {
          "internalType": "bool",
          "name": "",
          "type": "bool"
        }
      ],
      "stateMutability": "view",
      "type": "function"
    },
    {
      "inputs": [
        {
          "internalType": "address",
          "name": "target",
          "type": "address"
        },
        {
          "internalType": "bytes",
          "name": "data",
          "type": "bytes"
        }
      ],
      "name": "arbitraryStaticCall",
      "outputs": [
        {
          "internalType": "uint256",
          "name": "",
          "type": "uint256"
        }
      ],
      "stateMutability": "view",
      "type": "function"
    },
    {
      "inputs": [
        {
          "internalType": "address",
          "name": "maker",
          "type": "address"
        },
        {
          "internalType": "uint256",
          "name": "slot",
          "type": "uint256"
        }
      ],
      "name": "bitInvalidatorForOrder",
      "outputs": [
        {
          "internalType": "uint256",
          "name": "",
          "type": "uint256"
        }
      ],
      "stateMutability": "view",
      "type": "function"
    },
    {
      "inputs": [
        {
          "internalType": "MakerTraits",
          "name": "makerTraits",
          "type": "uint256"
        },
        {
          "internalType": "uint256",
          "name": "additionalMask",
          "type": "uint256"
        }
      ],
      "name": "bitsInvalidateForOrder",
      "outputs": [],
      "stateMutability": "nonpayable",
      "type": "function"
    },
    {
      "inputs": [
        {
          "internalType": "MakerTraits",
          "name": "makerTraits",
          "type": "uint256"
        },
        {
          "internalType": "bytes32",
          "name": "orderHash",
          "type": "bytes32"
        }
      ],
      "name": "cancelOrder",
      "outputs": [],
      "stateMutability": "nonpayable",
      "type": "function"
    },
    {
      "inputs": [
        {
          "internalType": "MakerTraits[]",
          "name": "makerTraits",
          "type": "uint256[]"
        },
        {
          "internalType": "bytes32[]",
          "name": "orderHashes",
          "type": "bytes32[]"
        }
      ],
      "name": "cancelOrders",
      "outputs": [],
      "stateMutability": "nonpayable",
      "type": "function"
    },
    {
      "inputs": [
        {
          "internalType": "bytes",
          "name": "predicate",
          "type": "bytes"
        }
      ],
      "name": "checkPredicate",
      "outputs": [
        {
          "internalType": "bool",
          "name": "",
          "type": "bool"
        }
      ],
      "stateMutability": "view",
      "type": "function"
    },
    {
      "inputs": [
        {
          "internalType": "contract IClipperExchange",
          "name": "clipperExchange",
          "type": "address"
        },
        {
          "internalType": "Address",
          "name": "srcToken",
          "type": "uint256"
        },
        {
          "internalType": "contract IERC20",
          "name": "dstToken",
          "type": "address"
        },
        {
          "internalType": "uint256",
          "name": "inputAmount",
          "type": "uint256"
        },
        {
          "internalType": "uint256",
          "name": "outputAmount",
          "type": "uint256"
        },
        {
          "internalType": "uint256",
          "name": "goodUntil",
          "type": "uint256"
        },
        {
          "internalType": "bytes32",
          "name": "r",
          "type": "bytes32"
        },
        {
          "internalType": "bytes32",
          "name": "vs",
          "type": "bytes32"
        }
      ],
      "name": "clipperSwap",
      "outputs": [
        {
          "internalType": "uint256",
          "name": "returnAmount",
          "type": "uint256"
        }
      ],
      "stateMutability": "payable",
      "type": "function"
    },
    {
      "inputs": [
        {
          "internalType": "contract IClipperExchange",
          "name": "clipperExchange",
          "type": "address"
        },
        {
          "internalType": "address payable",
          "name": "recipient",
          "type": "address"
        },
        {
          "internalType": "Address",
          "name": "srcToken",
          "type": "uint256"
        },
        {
          "internalType": "contract IERC20",
          "name": "dstToken",
          "type": "address"
        },
        {
          "internalType": "uint256",
          "name": "inputAmount",
          "type": "uint256"
        },
        {
          "internalType": "uint256",
          "name": "outputAmount",
          "type": "uint256"
        },
        {
          "internalType": "uint256",
          "name": "goodUntil",
          "type": "uint256"
        },
        {
          "internalType": "bytes32",
          "name": "r",
          "type": "bytes32"
        },
        {
          "internalType": "bytes32",
          "name": "vs",
          "type": "bytes32"
        }
      ],
      "name": "clipperSwapTo",
      "outputs": [
        {
          "internalType": "uint256",
          "name": "returnAmount",
          "type": "uint256"
        }
      ],
      "stateMutability": "payable",
      "type": "function"
    },
    {
      "inputs": [
        {
          "internalType": "address",
          "name": "",
          "type": "address"
        },
        {
          "internalType": "address",
          "name": "",
          "type": "address"
        },
        {
          "internalType": "address",
          "name": "inCoin",
          "type": "address"
        },
        {
          "internalType": "uint256",
          "name": "dx",
          "type": "uint256"
        },
        {
          "internalType": "uint256",
          "name": "",
          "type": "uint256"
        }
      ],
      "name": "curveSwapCallback",
      "outputs": [],
      "stateMutability": "nonpayable",
      "type": "function"
    },
    {
      "inputs": [],
      "name": "eip712Domain",
      "outputs": [
        {
          "internalType": "bytes1",
          "name": "fields",
          "type": "bytes1"
        },
        {
          "internalType": "string",
          "name": "name",
          "type": "string"
        },
        {
          "internalType": "string",
          "name": "version",
          "type": "string"
        },
        {
          "internalType": "uint256",
          "name": "chainId",
          "type": "uint256"
        },
        {
          "internalType": "address",
          "name": "verifyingContract",
          "type": "address"
        },
        {
          "internalType": "bytes32",
          "name": "salt",
          "type": "bytes32"
        },
        {
          "internalType": "uint256[]",
          "name": "extensions",
          "type": "uint256[]"
        }
      ],
      "stateMutability": "view",
      "type": "function"
    },
    {
      "inputs": [
        {
          "internalType": "address",
          "name": "maker",
          "type": "address"
        },
        {
          "internalType": "uint96",
          "name": "series",
          "type": "uint96"
        }
      ],
      "name": "epoch",
      "outputs": [
        {
          "internalType": "uint256",
          "name": "",
          "type": "uint256"
        }
      ],
      "stateMutability": "view",
      "type": "function"
    },
    {
      "inputs": [
        {
          "internalType": "address",
          "name": "maker",
          "type": "address"
        },
        {
          "internalType": "uint256",
          "name": "series",
          "type": "uint256"
        },
        {
          "internalType": "uint256",
          "name": "makerEpoch",
          "type": "uint256"
        }
      ],
      "name": "epochEquals",
      "outputs": [
        {
          "internalType": "bool",
          "name": "",
          "type": "bool"
        }
      ],
      "stateMutability": "view",
      "type": "function"
    },
    {
      "inputs": [
        {
          "internalType": "uint256",
          "name": "value",
          "type": "uint256"
        },
        {
          "internalType": "bytes",
          "name": "data",
          "type": "bytes"
        }
      ],
      "name": "eq",
      "outputs": [
        {
          "internalType": "bool",
          "name": "",
          "type": "bool"
        }
      ],
      "stateMutability": "view",
      "type": "function"
    },
    {
      "inputs": [
        {
          "internalType": "uint256",
          "name": "minReturn",
          "type": "uint256"
        },
        {
          "internalType": "Address",
          "name": "dex",
          "type": "uint256"
        }
      ],
      "name": "ethUnoswap",
      "outputs": [
        {
          "internalType": "uint256",
          "name": "returnAmount",
          "type": "uint256"
        }
      ],
      "stateMutability": "payable",
      "type": "function"
    },
    {
      "inputs": [
        {
          "internalType": "uint256",
          "name": "minReturn",
          "type": "uint256"
        },
        {
          "internalType": "Address",
          "name": "dex",
          "type": "uint256"
        },
        {
          "internalType": "Address",
          "name": "dex2",
          "type": "uint256"
        }
      ],
      "name": "ethUnoswap2",
      "outputs": [
        {
          "internalType": "uint256",
          "name": "returnAmount",
          "type": "uint256"
        }
      ],
      "stateMutability": "payable",
      "type": "function"
    },
    {
      "inputs": [
        {
          "internalType": "uint256",
          "name": "minReturn",
          "type": "uint256"
        },
        {
          "internalType": "Address",
          "name": "dex",
          "type": "uint256"
        },
        {
          "internalType": "Address",
          "name": "dex2",
          "type": "uint256"
        },
        {
          "internalType": "Address",
          "name": "dex3",
          "type": "uint256"
        }
      ],
      "name": "ethUnoswap3",
      "outputs": [
        {
          "internalType": "uint256",
          "name": "returnAmount",
          "type": "uint256"
        }
      ],
      "stateMutability": "payable",
      "type": "function"
    },
    {
      "inputs": [
        {
          "internalType": "Address",
          "name": "to",
          "type": "uint256"
        },
        {
          "internalType": "uint256",
          "name": "minReturn",
          "type": "uint256"
        },
        {
          "internalType": "Address",
          "name": "dex",
          "type": "uint256"
        }
      ],
      "name": "ethUnoswapTo",
      "outputs": [
        {
          "internalType": "uint256",
          "name": "returnAmount",
          "type": "uint256"
        }
      ],
      "stateMutability": "payable",
      "type": "function"
    },
    {
      "inputs": [
        {
          "internalType": "Address",
          "name": "to",
          "type": "uint256"
        },
        {
          "internalType": "uint256",
          "name": "minReturn",
          "type": "uint256"
        },
        {
          "internalType": "Address",
          "name": "dex",
          "type": "uint256"
        },
        {
          "internalType": "Address",
          "name": "dex2",
          "type": "uint256"
        }
      ],
      "name": "ethUnoswapTo2",
      "outputs": [
        {
          "internalType": "uint256",
          "name": "returnAmount",
          "type": "uint256"
        }
      ],
      "stateMutability": "payable",
      "type": "function"
    },
    {
      "inputs": [
        {
          "internalType": "Address",
          "name": "to",
          "type": "uint256"
        },
        {
          "internalType": "uint256",
          "name": "minReturn",
          "type": "uint256"
        },
        {
          "internalType": "Address",
          "name": "dex",
          "type": "uint256"
        },
        {
          "internalType": "Address",
          "name": "dex2",
          "type": "uint256"
        },
        {
          "internalType": "Address",
          "name": "dex3",
          "type": "uint256"
        }
      ],
      "name": "ethUnoswapTo3",
      "outputs": [
        {
          "internalType": "uint256",
          "name": "returnAmount",
          "type": "uint256"
        }
      ],
      "stateMutability": "payable",
      "type": "function"
    },
    {
      "inputs": [
        {
          "components": [
            {
              "internalType": "uint256",
              "name": "salt",
              "type": "uint256"
            },
            {
              "internalType": "Address",
              "name": "maker",
              "type": "uint256"
            },
            {
              "internalType": "Address",
              "name": "receiver",
              "type": "uint256"
            },
            {
              "internalType": "Address",
              "name": "makerAsset",
              "type": "uint256"
            },
            {
              "internalType": "Address",
              "name": "takerAsset",
              "type": "uint256"
            },
            {
              "internalType": "uint256",
              "name": "makingAmount",
              "type": "uint256"
            },
            {
              "internalType": "uint256",
              "name": "takingAmount",
              "type": "uint256"
            },
            {
              "internalType": "MakerTraits",
              "name": "makerTraits",
              "type": "uint256"
            }
          ],
          "internalType": "struct IOrderMixin.Order",
          "name": "order",
          "type": "tuple"
        },
        {
          "internalType": "bytes",
          "name": "signature",
          "type": "bytes"
        },
        {
          "internalType": "uint256",
          "name": "amount",
          "type": "uint256"
        },
        {
          "internalType": "TakerTraits",
          "name": "takerTraits",
          "type": "uint256"
        }
      ],
      "name": "fillContractOrder",
      "outputs": [
        {
          "internalType": "uint256",
          "name": "",
          "type": "uint256"
        },
        {
          "internalType": "uint256",
          "name": "",
          "type": "uint256"
        },
        {
          "internalType": "bytes32",
          "name": "",
          "type": "bytes32"
        }
      ],
      "stateMutability": "nonpayable",
      "type": "function"
    },
    {
      "inputs": [
        {
          "components": [
            {
              "internalType": "uint256",
              "name": "salt",
              "type": "uint256"
            },
            {
              "internalType": "Address",
              "name": "maker",
              "type": "uint256"
            },
            {
              "internalType": "Address",
              "name": "receiver",
              "type": "uint256"
            },
            {
              "internalType": "Address",
              "name": "makerAsset",
              "type": "uint256"
            },
            {
              "internalType": "Address",
              "name": "takerAsset",
              "type": "uint256"
            },
            {
              "internalType": "uint256",
              "name": "makingAmount",
              "type": "uint256"
            },
            {
              "internalType": "uint256",
              "name": "takingAmount",
              "type": "uint256"
            },
            {
              "internalType": "MakerTraits",
              "name": "makerTraits",
              "type": "uint256"
            }
          ],
          "internalType": "struct IOrderMixin.Order",
          "name": "order",
          "type": "tuple"
        },
        {
          "internalType": "bytes",
          "name": "signature",
          "type": "bytes"
        },
        {
          "internalType": "uint256",
          "name": "amount",
          "type": "uint256"
        },
        {
          "internalType": "TakerTraits",
          "name": "takerTraits",
          "type": "uint256"
        },
        {
          "internalType": "bytes",
          "name": "args",
          "type": "bytes"
        }
      ],
      "name": "fillContractOrderArgs",
      "outputs": [
        {
          "internalType": "uint256",
          "name": "",
          "type": "uint256"
        },
        {
          "internalType": "uint256",
          "name": "",
          "type": "uint256"
        },
        {
          "internalType": "bytes32",
          "name": "",
          "type": "bytes32"
        }
      ],
      "stateMutability": "nonpayable",
      "type": "function"
    },
    {
      "inputs": [
        {
          "components": [
            {
              "internalType": "uint256",
              "name": "salt",
              "type": "uint256"
            },
            {
              "internalType": "Address",
              "name": "maker",
              "type": "uint256"
            },
            {
              "internalType": "Address",
              "name": "receiver",
              "type": "uint256"
            },
            {
              "internalType": "Address",
              "name": "makerAsset",
              "type": "uint256"
            },
            {
              "internalType": "Address",
              "name": "takerAsset",
              "type": "uint256"
            },
            {
              "internalType": "uint256",
              "name": "makingAmount",
              "type": "uint256"
            },
            {
              "internalType": "uint256",
              "name": "takingAmount",
              "type": "uint256"
            },
            {
              "internalType": "MakerTraits",
              "name": "makerTraits",
              "type": "uint256"
            }
          ],
          "internalType": "struct IOrderMixin.Order",
          "name": "order",
          "type": "tuple"
        },
        {
          "internalType": "bytes32",
          "name": "r",
          "type": "bytes32"
        },
        {
          "internalType": "bytes32",
          "name": "vs",
          "type": "bytes32"
        },
        {
          "internalType": "uint256",
          "name": "amount",
          "type": "uint256"
        },
        {
          "internalType": "TakerTraits",
          "name": "takerTraits",
          "type": "uint256"
        }
      ],
      "name": "fillOrder",
      "outputs": [
        {
          "internalType": "uint256",
          "name": "",
          "type": "uint256"
        },
        {
          "internalType": "uint256",
          "name": "",
          "type": "uint256"
        },
        {
          "internalType": "bytes32",
          "name": "",
          "type": "bytes32"
        }
      ],
      "stateMutability": "payable",
      "type": "function"
    },
    {
      "inputs": [
        {
          "components": [
            {
              "internalType": "uint256",
              "name": "salt",
              "type": "uint256"
            },
            {
              "internalType": "Address",
              "name": "maker",
              "type": "uint256"
            },
            {
              "internalType": "Address",
              "name": "receiver",
              "type": "uint256"
            },
            {
              "internalType": "Address",
              "name": "makerAsset",
              "type": "uint256"
            },
            {
              "internalType": "Address",
              "name": "takerAsset",
              "type": "uint256"
            },
            {
              "internalType": "uint256",
              "name": "makingAmount",
              "type": "uint256"
            },
            {
              "internalType": "uint256",
              "name": "takingAmount",
              "type": "uint256"
            },
            {
              "internalType": "MakerTraits",
              "name": "makerTraits",
              "type": "uint256"
            }
          ],
          "internalType": "struct IOrderMixin.Order",
          "name": "order",
          "type": "tuple"
        },
        {
          "internalType": "bytes32",
          "name": "r",
          "type": "bytes32"
        },
        {
          "internalType": "bytes32",
          "name": "vs",
          "type": "bytes32"
        },
        {
          "internalType": "uint256",
          "name": "amount",
          "type": "uint256"
        },
        {
          "internalType": "TakerTraits",
          "name": "takerTraits",
          "type": "uint256"
        },
        {
          "internalType": "bytes",
          "name": "args",
          "type": "bytes"
        }
      ],
      "name": "fillOrderArgs",
      "outputs": [
        {
          "internalType": "uint256",
          "name": "",
          "type": "uint256"
        },
        {
          "internalType": "uint256",
          "name": "",
          "type": "uint256"
        },
        {
          "internalType": "bytes32",
          "name": "",
          "type": "bytes32"
        }
      ],
      "stateMutability": "payable",
      "type": "function"
    },
    {
      "inputs": [
        {
          "internalType": "uint256",
          "name": "value",
          "type": "uint256"
        },
        {
          "internalType": "bytes",
          "name": "data",
          "type": "bytes"
        }
      ],
      "name": "gt",
      "outputs": [
        {
          "internalType": "bool",
          "name": "",
          "type": "bool"
        }
      ],
      "stateMutability": "view",
      "type": "function"
    },
    {
      "inputs": [
        {
          "components": [
            {
              "internalType": "uint256",
              "name": "salt",
              "type": "uint256"
            },
            {
              "internalType": "Address",
              "name": "maker",
              "type": "uint256"
            },
            {
              "internalType": "Address",
              "name": "receiver",
              "type": "uint256"
            },
            {
              "internalType": "Address",
              "name": "makerAsset",
              "type": "uint256"
            },
            {
              "internalType": "Address",
              "name": "takerAsset",
              "type": "uint256"
            },
            {
              "internalType": "uint256",
              "name": "makingAmount",
              "type": "uint256"
            },
            {
              "internalType": "uint256",
              "name": "takingAmount",
              "type": "uint256"
            },
            {
              "internalType": "MakerTraits",
              "name": "makerTraits",
              "type": "uint256"
            }
          ],
          "internalType": "struct IOrderMixin.Order",
          "name": "order",
          "type": "tuple"
        }
      ],
      "name": "hashOrder",
      "outputs": [
        {
          "internalType": "bytes32",
          "name": "",
          "type": "bytes32"
        }
      ],
      "stateMutability": "view",
      "type": "function"
    },
    {
      "inputs": [
        {
          "internalType": "uint96",
          "name": "series",
          "type": "uint96"
        }
      ],
      "name": "increaseEpoch",
      "outputs": [],
      "stateMutability": "nonpayable",
      "type": "function"
    },
    {
      "inputs": [
        {
          "internalType": "uint256",
          "name": "value",
          "type": "uint256"
        },
        {
          "internalType": "bytes",
          "name": "data",
          "type": "bytes"
        }
      ],
      "name": "lt",
      "outputs": [
        {
          "internalType": "bool",
          "name": "",
          "type": "bool"
        }
      ],
      "stateMutability": "view",
      "type": "function"
    },
    {
      "inputs": [
        {
          "internalType": "bytes",
          "name": "data",
          "type": "bytes"
        }
      ],
      "name": "not",
      "outputs": [
        {
          "internalType": "bool",
          "name": "",
          "type": "bool"
        }
      ],
      "stateMutability": "view",
      "type": "function"
    },
    {
      "inputs": [
        {
          "internalType": "uint256",
          "name": "offsets",
          "type": "uint256"
        },
        {
          "internalType": "bytes",
          "name": "data",
          "type": "bytes"
        }
      ],
      "name": "or",
      "outputs": [
        {
          "internalType": "bool",
          "name": "",
          "type": "bool"
        }
      ],
      "stateMutability": "view",
      "type": "function"
    },
    {
      "inputs": [],
      "name": "owner",
      "outputs": [
        {
          "internalType": "address",
          "name": "",
          "type": "address"
        }
      ],
      "stateMutability": "view",
      "type": "function"
    },
    {
      "inputs": [],
      "name": "pause",
      "outputs": [],
      "stateMutability": "nonpayable",
      "type": "function"
    },
    {
      "inputs": [],
      "name": "paused",
      "outputs": [
        {
          "internalType": "bool",
          "name": "",
          "type": "bool"
        }
      ],
      "stateMutability": "view",
      "type": "function"
    },
    {
      "inputs": [
        {
          "internalType": "bytes",
          "name": "permit",
          "type": "bytes"
        },
        {
          "internalType": "bytes",
          "name": "action",
          "type": "bytes"
        }
      ],
      "name": "permitAndCall",
      "outputs": [],
      "stateMutability": "payable",
      "type": "function"
    },
    {
      "inputs": [
        {
          "internalType": "address",
          "name": "maker",
          "type": "address"
        },
        {
          "internalType": "bytes32",
          "name": "orderHash",
          "type": "bytes32"
        }
      ],
      "name": "rawRemainingInvalidatorForOrder",
      "outputs": [
        {
          "internalType": "uint256",
          "name": "",
          "type": "uint256"
        }
      ],
      "stateMutability": "view",
      "type": "function"
    },
    {
      "inputs": [
        {
          "internalType": "address",
          "name": "maker",
          "type": "address"
        },
        {
          "internalType": "bytes32",
          "name": "orderHash",
          "type": "bytes32"
        }
      ],
      "name": "remainingInvalidatorForOrder",
      "outputs": [
        {
          "internalType": "uint256",
          "name": "",
          "type": "uint256"
        }
      ],
      "stateMutability": "view",
      "type": "function"
    },
    {
      "inputs": [],
      "name": "renounceOwnership",
      "outputs": [],
      "stateMutability": "nonpayable",
      "type": "function"
    },
    {
      "inputs": [
        {
          "internalType": "contract IERC20",
          "name": "token",
          "type": "address"
        },
        {
          "internalType": "uint256",
          "name": "amount",
          "type": "uint256"
        }
      ],
      "name": "rescueFunds",
      "outputs": [],
      "stateMutability": "nonpayable",
      "type": "function"
    },
    {
      "inputs": [
        {
          "internalType": "address",
          "name": "target",
          "type": "address"
        },
        {
          "internalType": "bytes",
          "name": "data",
          "type": "bytes"
        }
      ],
      "name": "simulate",
      "outputs": [],
      "stateMutability": "nonpayable",
      "type": "function"
    },
    {
      "inputs": [
        {
          "internalType": "contract IAggregationExecutor",
          "name": "executor",
          "type": "address"
        },
        {
          "components": [
            {
              "internalType": "contract IERC20",
              "name": "srcToken",
              "type": "address"
            },
            {
              "internalType": "contract IERC20",
              "name": "dstToken",
              "type": "address"
            },
            {
              "internalType": "address payable",
              "name": "srcReceiver",
              "type": "address"
            },
            {
              "internalType": "address payable",
              "name": "dstReceiver",
              "type": "address"
            },
            {
              "internalType": "uint256",
              "name": "amount",
              "type": "uint256"
            },
            {
              "internalType": "uint256",
              "name": "minReturnAmount",
              "type": "uint256"
            },
            {
              "internalType": "uint256",
              "name": "flags",
              "type": "uint256"
            }
          ],
          "internalType": "struct GenericRouter.SwapDescription",
          "name": "desc",
          "type": "tuple"
        },
        {
          "internalType": "bytes",
          "name": "data",
          "type": "bytes"
        }
      ],
      "name": "swap",
      "outputs": [
        {
          "internalType": "uint256",
          "name": "returnAmount",
          "type": "uint256"
        },
        {
          "internalType": "uint256",
          "name": "spentAmount",
          "type": "uint256"
        }
      ],
      "stateMutability": "payable",
      "type": "function"
    },
    {
      "inputs": [
        {
          "internalType": "address",
          "name": "newOwner",
          "type": "address"
        }
      ],
      "name": "transferOwnership",
      "outputs": [],
      "stateMutability": "nonpayable",
      "type": "function"
    },
    {
      "inputs": [
        {
          "internalType": "int256",
          "name": "amount0Delta",
          "type": "int256"
        },
        {
          "internalType": "int256",
          "name": "amount1Delta",
          "type": "int256"
        },
        {
          "internalType": "bytes",
          "name": "",
          "type": "bytes"
        }
      ],
      "name": "uniswapV3SwapCallback",
      "outputs": [],
      "stateMutability": "nonpayable",
      "type": "function"
    },
    {
      "inputs": [
        {
          "internalType": "Address",
          "name": "token",
          "type": "uint256"
        },
        {
          "internalType": "uint256",
          "name": "amount",
          "type": "uint256"
        },
        {
          "internalType": "uint256",
          "name": "minReturn",
          "type": "uint256"
        },
        {
          "internalType": "Address",
          "name": "dex",
          "type": "uint256"
        }
      ],
      "name": "unoswap",
      "outputs": [
        {
          "internalType": "uint256",
          "name": "returnAmount",
          "type": "uint256"
        }
      ],
      "stateMutability": "nonpayable",
      "type": "function"
    },
    {
      "inputs": [
        {
          "internalType": "Address",
          "name": "token",
          "type": "uint256"
        },
        {
          "internalType": "uint256",
          "name": "amount",
          "type": "uint256"
        },
        {
          "internalType": "uint256",
          "name": "minReturn",
          "type": "uint256"
        },
        {
          "internalType": "Address",
          "name": "dex",
          "type": "uint256"
        },
        {
          "internalType": "Address",
          "name": "dex2",
          "type": "uint256"
        }
      ],
      "name": "unoswap2",
      "outputs": [
        {
          "internalType": "uint256",
          "name": "returnAmount",
          "type": "uint256"
        }
      ],
      "stateMutability": "nonpayable",
      "type": "function"
    },
    {
      "inputs": [
        {
          "internalType": "Address",
          "name": "token",
          "type": "uint256"
        },
        {
          "internalType": "uint256",
          "name": "amount",
          "type": "uint256"
        },
        {
          "internalType": "uint256",
          "name": "minReturn",
          "type": "uint256"
        },
        {
          "internalType": "Address",
          "name": "dex",
          "type": "uint256"
        },
        {
          "internalType": "Address",
          "name": "dex2",
          "type": "uint256"
        },
        {
          "internalType": "Address",
          "name": "dex3",
          "type": "uint256"
        }
      ],
      "name": "unoswap3",
      "outputs": [
        {
          "internalType": "uint256",
          "name": "returnAmount",
          "type": "uint256"
        }
      ],
      "stateMutability": "nonpayable",
      "type": "function"
    },
    {
      "inputs": [
        {
          "internalType": "Address",
          "name": "to",
          "type": "uint256"
        },
        {
          "internalType": "Address",
          "name": "token",
          "type": "uint256"
        },
        {
          "internalType": "uint256",
          "name": "amount",
          "type": "uint256"
        },
        {
          "internalType": "uint256",
          "name": "minReturn",
          "type": "uint256"
        },
        {
          "internalType": "Address",
          "name": "dex",
          "type": "uint256"
        }
      ],
      "name": "unoswapTo",
      "outputs": [
        {
          "internalType": "uint256",
          "name": "returnAmount",
          "type": "uint256"
        }
      ],
      "stateMutability": "nonpayable",
      "type": "function"
    },
    {
      "inputs": [
        {
          "internalType": "Address",
          "name": "to",
          "type": "uint256"
        },
        {
          "internalType": "Address",
          "name": "token",
          "type": "uint256"
        },
        {
          "internalType": "uint256",
          "name": "amount",
          "type": "uint256"
        },
        {
          "internalType": "uint256",
          "name": "minReturn",
          "type": "uint256"
        },
        {
          "internalType": "Address",
          "name": "dex",
          "type": "uint256"
        },
        {
          "internalType": "Address",
          "name": "dex2",
          "type": "uint256"
        }
      ],
      "name": "unoswapTo2",
      "outputs": [
        {
          "internalType": "uint256",
          "name": "returnAmount",
          "type": "uint256"
        }
      ],
      "stateMutability": "nonpayable",
      "type": "function"
    },
    {
      "inputs": [
        {
          "internalType": "Address",
          "name": "to",
          "type": "uint256"
        },
        {
          "internalType": "Address",
          "name": "token",
          "type": "uint256"
        },
        {
          "internalType": "uint256",
          "name": "amount",
          "type": "uint256"
        },
        {
          "internalType": "uint256",
          "name": "minReturn",
          "type": "uint256"
        },
        {
          "internalType": "Address",
          "name": "dex",
          "type": "uint256"
        },
        {
          "internalType": "Address",
          "name": "dex2",
          "type": "uint256"
        },
        {
          "internalType": "Address",
          "name": "dex3",
          "type": "uint256"
        }
      ],
      "name": "unoswapTo3",
      "outputs": [
        {
          "internalType": "uint256",
          "name": "returnAmount",
          "type": "uint256"
        }
      ],
      "stateMutability": "nonpayable",
      "type": "function"
    },
    {
      "inputs": [],
      "name": "unpause",
      "outputs": [],
      "stateMutability": "nonpayable",
      "type": "function"
    },
    {
      "stateMutability": "payable",
      "type": "receive"
    }
  ],
  "bytecode": "0x6101c060405234620000a7576200001f620000196200014a565b62000252565b604051615c6f6200093b823960805181613333015260a05181613360015260c05181613300015260e05181614a4001526101005181614a1f0152610120518161343501526101405181613462015261016051815050610180518150506101a051818181613e3201528181614108015281816141350152818161423a01526143780152615c6f90f35b600080fd5b634e487b7160e01b600052604160045260246000fd5b90601f01601f191681019081106001600160401b03821117620000e457604052565b620000ac565b9062000101620000f960405190565b9283620000c2565b565b6001600160a01b031690565b90565b6001600160a01b03811603620000a757565b90505190620001018262000112565b90602082820312620000a7576200010f9162000124565b6200010f620065aa803803806200016181620000ea565b92833981019062000133565b6001600160401b038111620000e457602090601f01601f19160190565b0190565b90620001a46200019e836200016d565b620000ea565b918252565b620001b560186200018e565b7f31696e6368204167677265676174696f6e20526f757465720000000000000000602082015290565b6200010f620001a9565b620001f460016200018e565b601b60f91b602082015290565b6200010f620001e8565b6200010f9062000103906001600160a01b031682565b6200010f906200020b565b6200010f9062000221565b620001036200010f6200010f9290565b6200010f9062000237565b6200027f906200027962000265620001de565b6200026f62000201565b90338480620002be565b6200022c565b620002a06200029362000103600062000247565b916001600160a01b031690565b14620002a857565b60405163d92e233d60e01b8152600490fd5b0390fd5b9391620002d79391620002d1866200022c565b620002dd565b6101a052565b9062000101949392919391620002f49391620002fa565b61018052565b6200010193849384936200031092919062000316565b61016052565b9062000101929162000357565b9060ff60a01b9060a01b5b9181191691161790565b906200034b6200010f6200035392151590565b825462000323565b9055565b9062000364929162000372565b620001016000600362000338565b916200037e91620003e3565b6200038a600062000247565b6001600160a01b0381166001600160a01b03831614620003b05750620001019062000495565b620002ba90620003bf60405190565b631e4fbdf760e01b8152918291600483016001600160a01b03909116815260200190565b62000101918291829162000436916200041b9062000403600082620006fa565b6101205262000414600184620006fa565b6101405290565b6200042f62000428825190565b9160200190565b2060e05290565b6200044362000428825190565b20610100524660a0526200045662000793565b60805262000464306200022c565b60c052565b906001600160a01b03906200032e565b906200048d6200010f62000353926200022c565b825462000469565b620004c4620004bd620004b06003546001600160a01b031690565b6200027984600362000479565b916200022c565b907f8be0079c531659141344cd1fd0a4f28419497f9722a3daafe3b4186f6b6457e0620004f060405190565b600090a3565b6200010f6200010f6200010f9290565b634e487b7160e01b600052602260045260246000fd5b90600160028304921680156200053f575b60208310146200053957565b62000506565b91607f16916200052d565b9160001960089290920291821b911b6200032e565b9190620005746200010f6200035393620004f6565b9083546200054a565b62000101916000916200055f565b81811062000597575050565b80620005a760006001936200057d565b016200058b565b9190601f8111620005be57505050565b620005d26200010193600052602060002090565b906020601f840181900483019310620005f6575b6020601f9091010401906200058b565b9091508190620005e6565b906200060b815190565b906001600160401b038211620000e45762000633826200062c85546200051c565b85620005ae565b602090601f831160011462000672576200035392916000918362000666575b5050600019600883021c1916906002021790565b01519050388062000652565b601f198316916200068885600052602060002090565b9260005b818110620006c957509160029391856001969410620006af575b50505002019055565b01516000196008601f8516021c19169055388080620006a6565b919360206001819287870151815501950192016200068c565b90620001019162000601565b6200010f60ff620004f6565b8051620007106200070c6020620004f6565b9190565b101562000723576200010f9150620008c5565b600062000731620007389390565b01620006e2565b6200010f6200010f620006ee565b9095949262000101946200077d6200078492620007766080966200076f60a088019c6000890152565b6020870152565b6040850152565b6060830152565b01906001600160a01b03169052565b7f8b73c3c69bb8fe3d512ecc4cf759cc79239f7b179b0ffacaa9a75d522b39400f620007f7620007c260e05190565b6101005190620007ea620007d6306200022c565b604051958694602086019446928662000746565b90810382520382620000c2565b6200080462000428825190565b2090565b60005b8381106200081c5750506000910152565b81810151838201526020016200080b565b620008526200085c6020936200018a9362000846815190565b80835293849260200190565b9586910162000808565b601f01601f191690565b60208082526200010f929101906200082d565b62000895620008916200088a835190565b9260200190565b5190565b9060208110620008a3575090565b620008b690600019906020036008021b90565b1690565b6200010f90620004f6565b80620008cf825190565b620008df6200070c601f620004f6565b116200091457506200010f816200090d62000908620009026200010f9562000879565b620008ba565b915190565b17620004f6565b620002ba906200092360405190565b63305a27a960e01b8152918291600483016200086656fe60806040526004361015610023575b361561001957600080fd5b610021612a01565b005b60003560e01c806305b1ea031461034357806307ed23791461033e5780630d2c7c16146103395780630f449d7114610334578063143e86a71461032f57806315169dec1461032a578063175accdc14610325578063188ac35d14610320578063193674721461031b5780633f4ba83a14610316578063435b978914610311578063493189f01461030c5780634f38e2b81461030757806356a75868146103025780635816d723146102fd5780635c975abb146102f85780636fe7b0ba146102f3578063715018a6146102ee57806374261145146102e957806378e3214f146102e4578063802b2ef1146102df57806383800a8e146102da5780638456cb59146102d557806384b0196e146102d05780638770ba91146102cb57806389af926a146102c657806389e7c650146102c15780638da5cb5b146102bc5780639fda64bd146102b7578063a76dfc3b146102b2578063b68fb020146102ad578063bd61951d146102a8578063bf15fcd8146102a3578063bf7979591461029e578063bfa7514314610299578063c2a4075314610294578063c3cf80431461028f578063c4d652af1461028a578063ca4ece2214610285578063cc713a0414610280578063ce3d710a1461027b578063d2d374e514610276578063e2c95c8214610271578063e413f48d1461026c578063ea76dddf14610267578063f2fde38b14610262578063f497df751461025d578063f7a7005614610258578063fa461e33146102535763fcea9e4e0361000e576111b6565b611177565b611114565b611098565b61100f565b610fd9565b610fbd565b610f69565b610f49565b610ebd565b610e85565b610e1a565b610dfa565b610d63565b610d33565b610d17565b610cfb565b610cdf565b610cc9565b610c99565b610c82565b610c68565b610bdf565b610bc3565b610b35565b610b16565b610ae2565b61099d565b61097e565b610963565b610935565b610919565b610901565b6108e5565b6108ca565b6108b6565b61083d565b61077e565b61072f565b6106ce565b6106b6565b610689565b61061c565b610605565b6105ae565b61056d565b610527565b6104d9565b610474565b61038b565b90565b805b0361035457565b600080fd5b905035906103668261034b565b565b9190604083820312610354576103489060206103848286610359565b9401610359565b34610354576103a461039e366004610368565b90611240565b604051005b0390f35b6001600160a01b031690565b6001600160a01b03811661034d565b90503590610366826103b9565b908160e09103126103545790565b909182601f83011215610354578135916001600160401b03831161035457602001926001830284011161035457565b91610120838303126103545761042882846103c8565b9261043683602083016103d5565b926101008201356001600160401b0381116103545761045592016103e3565b9091565b9052565b9081526040810192916103669160200152565b0152565b61048b610482366004610412565b92919091611680565b906103a961049860405190565b9283928361045d565b6001600160601b03811661034d565b90503590610366826104a1565b91906040838203126103545761034890602061038482866104b0565b34610354576103a46104ec3660046104bd565b9061173a565b608081830312610354576105068282610359565b926103486105178460208501610359565b9360606103848260408701610359565b6103a96105416105383660046104f2565b92919091611812565b6040519182918290815260200190565b91906040838203126103545761034890602061038482866103c8565b34610354576103a9610541610583366004610551565b90611890565b906020828203126103545781356001600160401b0381116103545761045592016103e3565b34610354576103a96105ca6105c4366004610589565b906118b0565b60405191829182901515815260200190565b9091606082840312610354576103486105f58484610359565b9360406103848260208701610359565b6103a96105416106163660046105dc565b916118e3565b6103a961054161062d3660046104f2565b92919091611944565b909160c0828403126103545761064c8383610359565b9261065a8160208501610359565b926106688260408301610359565b926103486106798460608501610359565b9360a06103848260808701610359565b34610354576103a961054161069f366004610636565b949390939291926119a4565b600091031261035457565b34610354576106c63660046106ab565b6103a46119c7565b34610354576103a96105416106e4366004610551565b906119d5565b919060a083820312610354576107008184610359565b9261070e8260208301610359565b9261034861071f8460408501610359565b9360806103848260608701610359565b6103a96105416107403660046106ea565b939290926119fd565b919091604081840312610354576107608382610359565b9260208201356001600160401b0381116103545761045592016103e3565b34610354576103a96105ca610794366004610749565b91611a60565b90816101009103126103545790565b919061018083820312610354576107c0818461079a565b926101008101356001600160401b03811161035457826107e19183016103e3565b9290936107f2826101208501610359565b92610801836101408301610359565b926101608201356001600160401b0381116103545761045592016103e3565b908152606081019392610366929091604091610470906020830152565b34610354576103a961085f6108533660046107a9565b95949094939193611a7e565b60405191939193849384610820565b90916040828403126103545781356001600160401b03811161035457836108969184016103e3565b92909360208201356001600160401b0381116103545761045592016103e3565b6108c136600461086e565b92919091611b15565b34610354576108da3660046106ab565b6103a96105ca611b86565b34610354576103a96105ca6108fb366004610749565b91611b90565b34610354576109113660046106ab565b6103a4611bcb565b34610354576103a96105ca61092f366004610749565b91611bfc565b34610354576103a4610948366004610551565b90611caa565b9061010082820312610354576103489161079a565b34610354576103a961054161097936600461094e565b611cb4565b34610354576103a96105416109943660046104f2565b92919091611cc6565b34610354576109ad3660046106ab565b6103a4611ce7565b60005b8381106109c85750506000910152565b81810151838201526020016109b8565b6109f9610a02602093610a0c936109ed815190565b80835293849260200190565b958691016109b5565b601f01601f191690565b0190565b90610a30610a29610a1f845190565b8084529260200190565b9260200190565b9060005b818110610a415750505090565b909192610a5e610a576001928651815260200190565b9460200190565b929101610a34565b93959194610abe610ab6610ad595610aa8610ace956103489c9a610a9b60e08c019260008d01906001600160f81b0319169052565b8a820360208c01526109d8565b9088820360408a01526109d8565b976060870152565b6001600160a01b03166080850152565b60a0830152565b60c0818403910152610a10565b3461035457610af23660046106ab565b6103a9610afd611d95565b93610b0d97959793919360405190565b97889788610a66565b34610354576103a9610541610b2c3660046106ea565b93929092611ddb565b6103a9610541610b463660046105dc565b91611dea565b909182601f83011215610354578135916001600160401b03831161035457602001926020830284011161035457565b90916040828403126103545781356001600160401b0381116103545783610ba3918401610b4c565b92909360208201356001600160401b038111610354576104559201610b4c565b34610354576103a4610bd6366004610b7b565b92919091611e74565b3461035457610bef3660046106ab565b6103a9610c046003546001600160a01b031690565b604051918291826001600160a01b03909116815260200190565b91906101808382031261035457610c35818461079a565b92610c44826101008301610359565b92610348610c56846101208501610359565b93610160610384826101408701610359565b6103a961085f610c79366004610c1e565b93929092611ee8565b6103a9610541610c93366004610368565b90611f33565b34610354576103a4610cac366004610368565b90611f91565b9190916040818403126103545761076083826103c8565b3461035457610cd9366004610cb2565b916120bf565b34610354576103a9610541610cf5366004610cb2565b91612108565b34610354576103a96105ca610d11366004610589565b9061213e565b34610354576103a96105ca610d2d366004610749565b91612162565b34610354576103a9610541610d49366004610551565b906121f1565b9060208282031261035457610348916104b0565b34610354576103a4610d76366004610d4f565b61220c565b90916101208284031261035457610d9283836103c8565b92610da081602085016103c8565b92610dae8260408301610359565b92610dbc83606084016103c8565b92610dca8160808501610359565b92610dd88260a08301610359565b92610348610de98460c08501610359565b936101006103848260e08701610359565b6103a9610541610e0b366004610d7b565b979690969591959492946124f6565b34610354576103a96105ca610e30366004610749565b91612509565b916101608383031261035457610e4c828461079a565b92610100810135916001600160401b03831161035457610e71846103489484016103e3565b939094610140610384826101208701610359565b34610354576103a961085f610e9b366004610e36565b93929092612527565b9091606082840312610354576103486105f584846103c8565b34610354576103a96105ca610ed3366004610ea4565b9161255c565b91906101008382031261035457610ef081846103c8565b92610efe8260208301610359565b92610f0c83604084016103c8565b92610f1a8160608501610359565b92610f288260808301610359565b92610348610f398460a08501610359565b9360e06103848260c08701610359565b6103a9610541610f5a366004610ed9565b96959095949194939293612594565b34610354576103a9610541610f7f3660046106ea565b939290926125ae565b919060a08382031261035457610f9e81846103c8565b92610fac82602083016103c8565b9261034861071f84604085016103c8565b34610354576103a4610fd0366004610f88565b939290926125cd565b34610354576103a9610541610fef366004610636565b949390939291926125e4565b9060208282031261035457610348916103c8565b34610354576103a4611022366004610ffb565b612668565b916101a0838303126103545761103d828461079a565b9261104c836101008301610359565b9261105b816101208401610359565b9261106a826101408501610359565b92611079836101608301610359565b926101808201356001600160401b0381116103545761045592016103e3565b6103a961085f6110a9366004611027565b95949094939193612671565b60e081830312610354576110c98282610359565b926110d78360208401610359565b926110e58160408501610359565b926110f38260608301610359565b926103486111048460808501610359565b9360c06103848260a08701610359565b34610354576103a961054161112a3660046110b5565b95949094939193612694565b916060838303126103545761114b8284610359565b926111598360208301610359565b9260408201356001600160401b0381116103545761045592016103e3565b34610354576103a461118a366004611136565b929190916127d3565b9190604083820312610354576103489060206111af82866103c8565b94016104b0565b34610354576103a96105416111cc366004611193565b906129df565b610348906103ad906001600160a01b031682565b610348906111d2565b610348906111e6565b90611202906111ef565b600052602052604060002090565b61121d6103486103489290565b60ff1690565b6103489061123b6112376103489460ff1690565b9190565b901c90565b9061125161124d83612a09565b1590565b6112c8576112ac61129b7fcda0f7e73d07bdb14b141f2cf4745926629a1b63e7c6a3dd8a80232cb459a8509261129461128e6103483360046111f8565b95612a6b565b8095612aa7565b926112a66008611210565b90611223565b916112b6336111ef565b926112c361049860405190565b0390a2565b60405163435ffd6560e11b8152600490fd5b0390fd5b9061045595949392916112ef612b07565b6113b2565b356103488161034b565b6103486103486103489290565b35610348816103b9565b61034860026112fe565b61034860046112fe565b61034860016112fe565b634e487b7160e01b600052601160045260246000fd5b9190611354565b9290565b820391821161135f57565b611333565b8181029291811591840414171561135f57565b634e487b7160e01b600052601260045260246000fd5b8115611397570490565b611377565b6103ad6103486103489290565b6103489061139c565b505060a082019491936113c4866112f4565b6000906113d3611237836112fe565b1461166f576113e381870161130b565b956113f06020820161130b565b926113fa88612b44565b9060c0830197611409896112f4565b611422611414611315565b61141d886112fe565b921690565b1461163e5782156116325761143c610348608086016112f4565b3411156116205761146492155b6115d1575b608084019661145c886112f4565b903390612b9a565b938497611470826112f4565b61147a81996112f4565b611485611414611329565b1461159c5761149c611496306111ef565b83612c11565b6114a660016112fe565b811161156f575b505050886114db6112376103488a6114d66114d06114ca886112f4565b8c611364565b956112f4565b611364565b1061152b575061036694959697506060905b019061150d6115076103ad6115018561130b565b936113a9565b916111ef565b03611522575061151c336111ef565b90612cad565b61151c9061130b565b61154c85916115466115408a6114d68e6112f4565b916112f4565b9061138d565b906112da61155960405190565b630325276360e11b81529283926004840161045d565b61159492995061158361158a916000190190565b8092611349565b9861151c336111ef565b3880806114ad565b505050909192939495966115b2610348826112f4565b85106115c757509060606103669493926114ed565b61154c85916112f4565b61161b6115e06040860161130b565b6115ec608087016112f4565b6116146115f88d6112f4565b61160c61160361131f565b61141d8c6112fe565b1415926111ef565b338e612b82565b61144e565b604051631841b4e160e01b8152600490fd5b61143c610348866112fe565b821561166357611653610348608086016112f4565b3403611620576114649215611449565b611653610348866112fe565b6040516298b77960e21b8152600490fd5b610455939291906000806112de565b610348610348610348926001600160601b031690565b610348906116b96112376103489460ff1690565b901b90565b6103489081906001600160a01b031681565b90611202906112fe565b6103489081565b61034890546116da565b90600019905b9181191691161790565b9061170b610348611712926112fe565b82546116eb565b9055565b6104599061168f565b91602061036692949361047060408201966000830190611716565b9061174560006112fe565b81148015611800575b6117ee576117ca6117cf7f099133aefc2c2d1e56f8ef3622ec8e80979a0713fc9c4e1497740efcf8099396926117c0611786336111e6565b6117ab6117a56117958961168f565b61179f60a0611210565b906116a5565b916116be565b1791610a0c6117bb8460026116d0565b6116e1565b92839160026116d0565b6116fb565b6117d8336111ef565b926112c36117e560405190565b9283928361171f565b60405163555fbbbf60e01b8152600490fd5b5061180b60ff6112fe565b811161174e565b6103489392919061182283612d64565b611865575b611839611833306111ef565b91612dcb565b61185d611858600080516020615c1a8339815191526111e6565b6111e6565b6116be565b903492612e80565b61188b611884600080516020615c1a8339815191526111ef565b6111ef565b3490612d7c565b611827565b906118ab610348610348936118a3600090565b5060046111f8565b612e91565b6118c7919060005b506118c2306111ef565b612eb8565b816118d0575090565b90506118df61123760016112fe565b1490565b6103489291906118f283612d64565b611925575b611903611833306111ef565b61191d611858600080516020615c1a8339815191526111e6565b903492612f4e565b61193f611884600080516020615c1a8339815191526111ef565b6118f7565b6103489392919061195482612d64565b611985575b611962306111ef565b61197c611858600080516020615c1a8339815191526111e6565b34913390612fd9565b61199f611884600080516020615c1a8339815191526111ef565b611959565b6103489594939291903333612fd9565b6119bc612feb565b6103666103666130a0565b6103666119b4565b90611202565b6117bb610348926119f36119f8936119eb600090565b5060056111f8565b6119cf565b6130a8565b6103489493929190611a0e83612d64565b611a41575b611a1f611833306111ef565b611a39611858600080516020615c1a8339815191526111e6565b903492612fd9565b611a5b611884600080516020615c1a8339815191526111ef565b611a13565b91611a6c9160006118b8565b909182611a7857505090565b91501190565b9394611aa896611a9a91949294611a93600090565b50876130d9565b9893949295919690976131c1565b9192909190565b356bffffffffffffffffffffffff19169060148110611acc575090565b611ae4906001600160601b0319906014036008021b90565b1690565b6103489060601c6111d2565b61034890611ae8565b90939293848311610354578411610354578101920390565b92611b5260009394611b4c6104558695611b3a61187f611b358387611aaf565b611af4565b9381611b4660146112fe565b91611afd565b91613259565b508060405194853783305af43d6000833e15611b6c573d90f35b3d90fd5b6103489060a01c61121d565b6103489054611b70565b6103486003611b7c565b91611b9c9160006118b8565b909182611ba857505090565b91501490565b611bb6612feb565b610366610366611bc660006113a9565b613296565b610366611bae565b611be06103486103489290565b63ffffffff1690565b6103486103486103489263ffffffff1690565b90919060005b611c13611c0e83611bd3565b611be9565b90611c1e60006112fe565b8214611c8557611c4690611c4061045584611c38306111ef565b93888a611afd565b91612eb8565b81611c6f575b50611c6657611c6090916112a66020611210565b90611c02565b50505050600190565b9050611c7e61123760016112fe565b1438611c4c565b5050505050600090565b9061036691611c9c612feb565b906103669161151c336111ef565b9061036691611c8f565b61034890611cc06132ea565b90613386565b610348939291903333612f4e565b611cdc612feb565b610366610366613428565b610366611cd4565b634e487b7160e01b600052604160045260246000fd5b90601f01601f191681019081106001600160401b03821117611d2657604052565b611cef565b90610366611d3860405190565b9283611d05565b6001600160401b038111611d265760208091020190565b90611d68611d6383611d3f565b611d2b565b918252565b369037565b90610366611d88611d8284611d56565b93611d3f565b601f190160208401611d6d565b611d9d613430565b90611da661345d565b90611db0306111ef565b611dba60006112fe565b611dcc611dc760006112fe565b611d72565b600f60f81b9594934693929190565b61034894939291903333612e80565b610348929190611df982612d64565b611e2a575b611e07306111ef565b611e21611858600080516020615c1a8339815191526111e6565b34913390612e80565b611e44611884600080516020615c1a8339815191526111ef565b611dfe565b634e487b7160e01b600052603260045260246000fd5b9190811015611e6f576020020190565b611e49565b919392918193838503611ed657611e8b60006112fe565b855b811015611ecd57611ec681611ec089610cac611eb5848b611eba611eb5611e8d9a8e8e611e5f565b6112f4565b94611e5f565b60010190565b9050611e8b565b50945050505050565b604051631b2f9b3b60e31b8152600490fd5b611aa8949293919290600091611efd836112fe565b93611f29611f23611f1d611f1388883681611afd565b9890973681611afd565b97909691565b96909591565b9790963394613488565b6103489190611f4182612d64565b611f72575b611f4f306111ef565b611f69611858600080516020615c1a8339815191526111e6565b34913390612f4e565b611f8c611884600080516020615c1a8339815191526111ef565b611f46565b90611f9b82612a09565b15611ff157507fcda0f7e73d07bdb14b141f2cf4745926629a1b63e7c6a3dd8a80232cb459a8506112ac61129b611fdf611fd96103483360046111f8565b94612a6b565b9384611feb60006112fe565b91612aa7565b7f5152abf959f6564662358c2e52b702259b78bac5ee7842a0f01937e670efcc7d9150612032906105416120236135f6565b6117ca836119f33360056111f8565b0390a1565b90826000939282370152565b9091610a0c9083908093612037565b909161034892612043565b6001600160401b038111611d2657602090601f01601f19160190565b90611d68611d638361205d565b3d156120a0576120953d612079565b903d6000602084013e565b606090565b9015158152604060208201819052610348929101906109d8565b60009283926120d96120d060405190565b92839283612052565b03915af46120e5612086565b906112da6120f260405190565b63032695f960e31b8152928392600484016120a5565b9161211f9161212593612119600090565b50612eb8565b91901590565b61212c5790565b604051631f1b8f6160e01b8152600490fd5b61214a919060006118b8565b81612153575090565b90506118df61123760006112fe565b9060005b612172611c0e84611bd3565b9060009061217f826112fe565b83146121e65761211f6121a491611c406104558661219c306111ef565b938b8a611afd565b9081156121cf575b506121c757506121c190926112a66020611210565b91612166565b935050505090565b90506121de61123760016112fe565b1415386121ac565b505050505050600190565b6117bb610348926119f3612207936119eb600090565b6112fe565b610366906104ec60016112fe565b9061034899989796959493929161222f612b07565b612274565b61034861187f60006113a9565b610348600160ff1b6112fe565b6122676122616103489263ffffffff1690565b60e01b90565b6001600160e01b03191690565b9893979290919495985061228a61187f82612dcb565b90612293612234565b906001600160a01b0382166001600160a01b038416149081156124b95750873403611620575b1561235857505092600095928695926122d4610149966111ef565b926122e26327a9b42461224e565b956040519a8b97885260048801528560248801528b6044880152606487015260848601528160ff1c601b0160a486015260c485015260018060ff1b031660e4840152610120610104840152600561012484015264062929c86960db1b6101448401525af11561234f575090565b3d6000823e3d90fd5b9460009793919861237389989694976001600160a01b031690565b6001600160a01b03821614881461242757908794939291612396610149986111ef565b946123a4634cb6864c61224e565b976040519c8d998a5260048a015260248901528c604489015260648801521560011461241d57503060848601525b601b60ff83901c0160a486015260c48501526001600160ff1b031660e4840152610120610104840152600561012484015264062929c86960db1b6101448401525af11561234f575090565b60848601526123d2565b949291908794612439610169986111ef565b94612447632b651a6c61224e565b976040519c8d998a5260048a0152602489015260448801528b6064880152608487015260a48601528160ff1c601b0160c486015260e485015260018060ff1b0316610104840152610140610124840152600561014484015264062929c86960db1b6101648401525af11561234f575090565b6124c360006112fe565b3403611620576124f190896124e96124da886111ef565b926124e3612241565b90613601565b913387612b82565b6122b9565b610348989796959493929190600061221a565b916125159160006118b8565b90918261252157505090565b91501090565b611aa894929391929060009161253c836112fe565b93612552611f23611f1d611f1388883681611afd565b97909633946131c1565b6113506117bb6118df9361258c6117a56125816112379661257b600090565b506111e6565b9261179f60a0611210565b1760026116d0565b61034897969594939291906125a8336111ef565b906124f6565b906125c7610348959493926125c1600090565b50612dcb565b33612f4e565b505061036692506125dd906111ef565b339061361f565b906125f861034896959493926125c1600090565b33612e80565b6103669061260a612feb565b61261460006113a9565b6001600160a01b0381166001600160a01b03831614612637575061036690613296565b6112da9061264460405190565b631e4fbdf760e01b8152918291600483016001600160a01b03909116815260200190565b610366906125fe565b9394611aa89661268691949294611a93600090565b989394929591969097613488565b906126a96103489796959493926125c1600090565b33612fd9565b611be06103486103489263ffffffff1690565b6103489060e01c6126af565b6126ee6126e4611c0e630dfe168160e01b6126c2565b61179f60e0611210565b61270e612704611c0e63d21220a760e01b6126c2565b61179f60c0611210565b612724611795611c0e63ddca3f4360e01b6126c2565b61274461273a611c0e63a9059cbb60e01b6126c2565b61179f6080611210565b9061276561275b611c0e6323b872dd60e01b6126c2565b61179f6060611210565b9261278661277c611c0e631b63c28b60e11b6126c2565b61179f6040611210565b94171717171790565b6040513d6000823e3d90fd5b9060009392915af1156127ce57600160005114601f3d11163d1517156127bd57565b633c9fd93960e21b60005260046000fd5b61278f565b915091506127df6126ce565b60405191601583019282815260008083136001146129c2575060208085016004808401335afa156127ce57602084015194935b6084359230841460011461299a5760001260011461298457602081600484335afa156127ce575b602060408201600460088501335afa156127ce577fff1f98431c8ad98523631ae4a59f267346ea31f984000000000000000000000082526060812081527fe34f199b19b2b4f47f68442619d555527d244f78a3297ea89325f843f87b8b54602090910152605581206001600160a01b031633186129735760a435806001146128fa57156128c8575b5050505050565b6128f0946020946010836064966000955201936004850152336024850152604484015261279b565b38808080806128c1565b5093600094936014856084958897520192600484015233602484015260448301526064820152826e22d473030f116ddee9f6b43ac78ba35af180612959575b156129485738808080806128c1565b6361fce99960e11b60005260046000fd5b5060006e22d473030f116ddee9f6b43ac78ba33b11612939565b635960139160e11b60005260046000fd5b60208082016004808501335afa6128395761278f565b50503360108201526030810193909352506103669260209260449250600c019060009061279b565b8195506004859160209301335afa156127ce578251938193612812565b6103489161258c6117a56117956129fb6117bb9561257b600090565b9361168f565b610366613653565b612a1561124d8261365b565b908115612a20575090565b610348915061124d90613689565b61034860786112fe565b6103489061123b6112376103489490565b6103486103486103489264ffffffffff1690565b61034864ffffffffff612a49565b612a80612a8e91612a7a600090565b506112fe565b612a88612a2e565b90612a38565b611ae4612a5d565b610348906116b96112376103489490565b9291906117ca600061036693612abb600090565b50612aed612ad2612acc6008611210565b86611223565b94612add60ff6112fe565b16612ae860016112fe565b612a96565b17950194612afe6117bb84886116d0565b179182956116d0565b612b0f611b86565b612b1557565b60405163d93c066560e01b8152600490fd5b61034873eeeeeeeeeeeeeeeeeeeeeeeeeeeeeeeeeeeeeeee6111ef565b612b4f6103ad612234565b6001600160a01b03821614908115612b65575090565b90506118df612b756103ad612b27565b916001600160a01b031690565b9315612b915761036693613717565b6103669361369c565b909392602093600093612bab600090565b5081612bba634b64e49261224e565b93604051988995865260048601526024850137816024840101526044019134905af11561234f575060005190565b905051906103668261034b565b906020828203126103545761034891612be8565b60405161234f565b612c1a81612b44565b15612c2457503190565b612c5e91612c336020926111ef565b604051938492839182916370a0823160e01b8352600483016001600160a01b03909116815260200190565b03915afa908115612c9d57600091612c74575090565b610348915060203d602011612c96575b612c8e8183611d05565b810190612bf5565b503d612c84565b612c09565b6103486113886112fe565b919091612cba60006112fe565b8211612cc557505050565b612cce81612b44565b15612d455750612cdd306111ef565b81903110612d335760008091612cf5612d1a946111ef565b612cfd612ca2565b91612d0760405190565b9182800393f1612d15612086565b501590565b612d2057565b6040515b63b12d13eb60e01b8152600490fd5b604051631e9acf1760e31b8152600490fd5b612d51610366936111ef565b9061361f565b610348600160fb1b6112fe565b61124d61034891612d73600090565b506124e3612d57565b90600091612d89836112fe565b8211612d9457505050565b60048380938193630d0e30db60e41b83525af115612daf5750565b604051903d90823e3d90fd5b6103486001600160a01b036112fe565b611853612ddd61034892612a7a600090565b612de5612dbb565b1661139c565b9061034897969594939291612dfe612b07565b92612e4e95939897949896929650612e48612e18866137d4565b938493612e2488613815565b9b8c15612e7957612e34306111ef565b945b612e4060006112fe565b968793613821565b92613821565b908193612e59575050565b61036691612e74600080516020615c1a8339815191526111ef565b613974565b8a94612e36565b610348969594939291906000612deb565b6117bb906000612eb161034894612ea6600090565b506112a66008611210565b91016116d0565b91600090602092612ec7600090565b50600094826040519283375afa60203d14169182612ee157565b6000519150565b90610348969594939291612efa612b07565b9695949392919650612f0b85613815565b15612f435791612f2a93916103669593612f24306111ef565b90613821565b9283612e74600080516020615c1a8339815191526111ef565b956103489596613821565b6103489594939291906000612ee8565b906103489897969594939291612f72612b07565b98979493919692985086612f85846137d4565b93612f8f876137d4565b9a858c96612f9c8a613815565b9d8e600014612e4e9c612e4897612e4892612fd35750612fbb306111ef565b985b612fc760006112fe565b9a8b9788968793613821565b98612fbd565b61034897969594939291906000612f5e565b60035433906001600160a01b03168190036130035750565b6112da9061301060405190565b63118cdaa760e01b8152918291600483016001600160a01b03909116815260200190565b61303c6139b2565b61036661306a565b9060ff60a01b9060a01b6116f1565b9061306361034861171292151590565b8254613044565b61307660006003613053565b7f5db9ee0a495bf2e6ff9c91a7834c1ba4fdd244a5e8aa4e537bd38aeae4b073aa61203233610c04565b610366613034565b6130b3906000612a7a565b6130bd60006112fe565b81146130c7571990565b60405163aa3eef9560e01b8152600490fd5b909290916130e6836139d5565b156131b657610455816130ff611b3561310b9488611aaf565b9581611b4660146112fe565b9190925b613118816139fe565b90600091613125836112fe565b8111156131915761314e61045586836131466104556131569689858e611afd565b99909a611afd565b919092613a27565b91613160846112fe565b8311156131765792610455929161045594611afd565b50505061045581613189610455936112fe565b903681611afd565b5093613156936131ae6104556131a6856112fe565b853681611afd565b959096613a27565b90929192339361310f565b80989694929997959391996131d4600090565b506131e66131e06132ea565b83613386565b90819b61320261034860a06131fb8688613a3e565b96016112f4565b8414613219575b50506132149961475b565b919092565b61323c9161124d91846132378f602061323291016112f4565b612dcb565b613abb565b613247573880613209565b604051635cd5d23360e01b8152600490fd5b610348929190613268306111ef565b903390614770565b906001600160a01b03906116f1565b9061328f610348611712926111ef565b8254613270565b6132b96115076132ae6003546001600160a01b031690565b61187f84600361327f565b907f8be0079c531659141344cd1fd0a4f28419497f9722a3daafe3b4186f6b6457e06132e460405190565b600090a3565b6132f3306111ef565b6133256001600160a01b037f000000000000000000000000000000000000000000000000000000000000000016612b75565b148061335d575b15613355577f000000000000000000000000000000000000000000000000000000000000000090565b6103486149f9565b507f0000000000000000000000000000000000000000000000000000000000000000461461332c565b9061012061034892613396600090565b506101007f3af21ec5a20011b88d3b7b4ed7c806cef05a5980cf34974bcd53566a131f7e4c9160405192835260208301372060405161190160f01b8152600281019290925260228201526042902090565b6133ef612b07565b6103666133fe60016003613053565b7f62e78cea01bee320cd4e420270b5ea74000d11b0c9f74754ebdbfc544b05a25861203233610c04565b6103666133e7565b6103487f000000000000000000000000000000000000000000000000000000000000000060005b90614ba2565b6103487f00000000000000000000000000000000000000000000000000000000000000006001613457565b8098969492999795939161349a600090565b506134a66131e06132ea565b90819b6134bb61034860a06131fb8688613a3e565b84146134cc5750506132149961475b565b60208c01916134dd613232846112f4565b916134eb6103ad60006113a9565b6001600160a01b038416149182156135d3575b50506132475761351061124d87614c53565b156132095761351f8989614c66565b908161352e61123760146112fe565b101561353c575b5050613209565b60e08e61357661358295858561356e61045561356461187f611b3561124d9c61357d9c611aaf565b93611b3a306111ef565b939092614770565b50016112f4565b612a09565b61358f575b808080613535565b61124d6135b26117bb846119f36135ab6132326135b7976112f4565b60056111f8565b614c79565b6135c15738613587565b60405163c5f2be5160e01b8152600490fd5b6135e39250906103ad9186614bcb565b6001600160a01b038216141538806134fe565b6103486000196112fe565b61360c906000612a7a565b1661361a61123760006112fe565b141590565b9161124d9161363b9361363563a9059cbb61224e565b90614c91565b61364157565b60405163fb7f507960e01b8152600490fd5b610366614ce0565b613666906000612a7a565b61366e612241565b166118df61123760006112fe565b610348600160fe1b6112fe565b613694906000612a7a565b61360c61367c565b926000916064916020946136b36323b872dd61224e565b9260405193845260048401526024830152604482015282855af1806136ef575b1590505b6136dd57565b60405163f405907160e01b8152600490fd5b503d1561370a57506136d7600160005114601f3d11166136d3565b60006136d7913b116136d3565b92919061372a6001600160a01b036116be565b8311613793576000938493608493631b63c28b60e11b936040519485526004850152602484015260448301526064820152826e22d473030f116ddee9f6b43ac78ba35af18061377a575b156136d7565b506e22d473030f116ddee9f6b43ac78ba33b1515613774565b604051638112e11960e01b8152600490fd5b634e487b7160e01b600052602160045260246000fd5b600311156137c557565b6137a5565b90610366826137bb565b6137dd81614d17565b6137f06137ea60006137ca565b916137ca565b146137ff5750610348306111ef565b61034890612dcb565b610348600160fc1b6112fe565b610348906124e3613808565b6000969594939261383186614d17565b61383b60016137ca565b613844826137ca565b03613856575050610348959650615326565b61386360009392936137ca565b61386c826137ca565b036138fa575061034896975083906138866103ad306111ef565b6001600160a01b038216036138b357506138a561187f6138ae93612dcb565b612d5187612dcb565b615238565b90506138be33612b75565b146138ca575b50615238565b6138d961187f6138f492612dcb565b836138e387612dcb565b6138ec88614d43565b923390612b82565b386138c4565b6139076137ea60026137ca565b14613915575b505050505050565b9596506139379561392533612b75565b1480613962575b613943575b50614e51565b9038808080808061390d565b61395261187f61395c92612dcb565b836138e3306111ef565b38613931565b5061396d60006112fe565b341461392c565b81613981919392936153e6565b61398d6103ad306111ef565b6001600160a01b038216036139a0575050565b60008080938193611388f11561278f57565b6139bd61124d611b86565b6139c357565b604051638dfc202b60e01b8152600490fd5b6139e0906000612a7a565b61360c612d57565b61034860e06112fe565b61034862ffffff6112fe565b613a0d613a1591612a7a600090565b612a886139e8565b611ae46139f2565b61034860c86112fe565b613a36613a1591612a7a600090565b612a88613a1d565b90613a4e61357d60e084016112f4565b15613a86575060a0613a6091016112f4565b905b613a6c60006112fe565b8214613a7457565b604051637b8fded160e11b8152600490fd5b90613aaf60a0613aa86117bb613ab5956119f36135ab613232602089016112f4565b92016112f4565b90615406565b90613a62565b600090602092959495613acc600090565b9680630b135d3f60e11b96604051938885526004850152604060248501528160448501526064840137606401915afa613b025750565b600051143d602014169150565b906104559b9a999897969594939291613b26612b07565b613ca7565b50610348906020810190610359565b610459906112fe565b9060e0613c0061036693613b61613b5d6000830183613b2b565b8552565b613b7b613b716020830183613b2b565b6020860190613b3a565b613b95613b8b6040830183613b2b565b6040860190613b3a565b613baf613ba56060830183613b2b565b6060860190613b3a565b613bc9613bbf6080830183613b2b565b6080860190613b3a565b613be0613bd960a0830183613b2b565b60a0860152565b613bf7613bf060c0830183613b2b565b60c0860152565b82810190613b2b565b910190613b3a565b9190610a0281613c1f81610a0c9560209181520190565b8095612037565b95613c81613c9996613c70613c678a6103489f9d999e9c9798613c9199613c59613c899960006101e08601950190613b43565b8d83036101008f0152613c08565b9c6101208b0152565b6001600160a01b0316610140890152565b610160870152565b610180850152565b6101a0830152565b6101c0818503910152613c08565b9b99939a929b9796959491975050613cc361211f89888a615476565b6147525750613ce161124d613cda60e08a016112f4565b3390615573565b61474057613cf9613cf460e089016112f4565b6155de565b61472e57613d11613d0c60e089016112f4565b61561c565b6146ba575b87613d2461123760006112fe565b1161466a575b613d338461565f565b156145a45791899795939183613d5b613d4f8b8f9b999761582d565b9d8e9d8e8b8a8c615783565b90819c613d678661581a565b91613d7260006112fe565b8311614546575b505050505b613d9561124d613d9060e089016112f4565b61365b565b8061452e575b61451c578b8b02613daf61123760006112fe565b1461450a57613dc361357d60e088016112f4565b156144e257613e01613de7610348613de061323260208b016112f4565b60046111f8565b613dfb613df660e08a016112f4565b612a6b565b90615856565b613e15613e1060e088016112f4565b6158ba565b614407575b6060860193613e2b613232866112f4565b948d613e567f00000000000000000000000000000000000000000000000000000000000000006111ef565b96613e696001600160a01b038916612b75565b1491826143f6575b82156143ed57888a613e82306111ef565b935b8d613e99613e9460e085016112f4565b6158e9565b156143a2579050613eae9150613eb392615909565b905090565b613ec061123760006112fe565b1161425e578f90918a613eea6132326020613ee361187f613232613ef0996112f4565b93016112f4565b90613717565b614371575b5080613f0461123760136112fe565b116142eb575b50506080840191613f1d613232846112f4565b613f2f6001600160a01b038316612b75565b14806142d9575b1561419457505050613f458790565b341061162057863411614167575b87613f68613f6360e085016112f4565b615984565b156141015750613f8f600080613f7d8561599a565b6040516000918c905af1612d15612086565b612d205787925b613faa613fa560e085016112f4565b6139d5565b613fea575b505050613fdd907ffec331350fce78ba658e082a71da20ac9f8d798a99b3c79681c8440cbfe77e0793611349565b9061203261049860405190565b90919250613ff881836159ea565b9091818361400b613232602089016112f4565b918061401a61123760136112fe565b116140ca575b505061187f61402e916111ef565b91823b156103545760009461406a869289968b8f8f9061404d60405190565b9c8d9b8c9a8b996323175ef160e11b5b8b52339360048c01613c26565b03925af18015612c9d577ffec331350fce78ba658e082a71da20ac9f8d798a99b3c79681c8440cbfe77e0793613fdd9288926140ac575b819550829350613faf565b6140c49060006140bc8183611d05565b8101906106ab565b386140a1565b81955061187f945061402e9250806140eb611b35610455936140f795611aaf565b9681611b4660146112fe565b9381959250614020565b9261412c887f0000000000000000000000000000000000000000000000000000000000000000612d7c565b614162886141597f00000000000000000000000000000000000000000000000000000000000000006111ef565b612d518661599a565b613f96565b6141876000806141768a340390565b604051600091335af1612d15612086565b15613f5357604051612d24565b6141a160009693966112fe565b3403611620576141c6612b756141b9613232896112f4565b926001600160a01b031690565b1490816142c2575b81156142b6576141e66141e0306111ef565b916158ba565b15614270576141f8613eae84866159db565b61420561123760006112fe565b1161425e57896142269161421f61187f6132328f9a6112f4565b3390613717565b15613f96576141626142378461599a565b897f0000000000000000000000000000000000000000000000000000000000000000613974565b6040516301577e8360e51b8152600490fd5b61124d9061428461323261429994986112f4565b8b61428f86886159db565b9390923390615917565b6142a4578893614226565b60405163478a520560e01b8152600490fd5b6141e66141e08661599a565b90506142d3613f6360e086016112f4565b906141ce565b506142e460006112fe565b3411613f36565b8061430261187f61187f611b3561430e9587611aaf565b9281611b4660146112fe565b90823b156103545786928860008f8f82968f968f97614346938e9561433260405190565b9c8d9b8c9a8b9963adf38ba160e01b61405d565b03925af18015612c9d5761435b575b80613f0a565b61436b9060006140bc8183611d05565b38614355565b61439c908d7f0000000000000000000000000000000000000000000000000000000000000000613974565b38613ef5565b946143ce6143d6966143c861323260206143c161323261124d9b6112f4565b97016112f4565b95615909565b949093615917565b15613ef057604051630e1407e960e31b8152600490fd5b888a8593613e84565b915061440186613689565b91613e71565b61441187866158cd565b90818161442361323260208c016112f4565b918061443261123760136112fe565b116144ab575b505061187f614446916111ef565b91823b156103545788928f8f8a8f8f958f949761448092600099958a9661446c60405190565b9c8d9b8c9a8b99630986bdd560e01b61405d565b03925af18015612c9d57614495575b50613e1a565b6144a59060006140bc8183611d05565b3861448f565b61187f94508193506144469250806144cc611b35610455936144d895611aaf565b9481611b4660146112fe565b9381939250614438565b6145056144ef8d8b61583a565b6117ca8a6119f36135ab61323260208d016112f4565b613e01565b604051637dd2d13b60e11b8152600490fd5b6040516323bc005f60e21b8152600490fd5b5061453e61034860a088016112f4565b8c1415613d9b565b81810361457b5750506112376145599190565b11614568575b38808080613d79565b6040515b63fb8ae12960e01b8152600490fd5b61123791614590610348926145969596611364565b94611364565b111561455f5760405161456c565b9995939189979593916145bc888d9c8d8a898b6156e7565b9b898d1161463b575b8b8d916145d18661581a565b926145dc60006112fe565b84116145ec575b50505050613d7e565b828203614619575050508c10614606575b388b818e6145e3565b6040515b63240f51c960e11b8152600490fd5b61462d926145906112379361034893611364565b10156145fd5760405161460a565b9a509a50879a61464f888a808a898b615783565b9a808c11156145c557604051637f902a9360e01b8152600490fd5b6146748887615650565b908161468361123760006112fe565b11614690575b5050613d2a565b61469d9161124d916118b0565b6146a8573880614689565b604051635b314e0160e11b8152600490fd5b6146c961357d60e089016112f4565b61471c5761470561124d6146e261323260208b016112f4565b6146f66146f160e08c016112f4565b615639565b610ed3613df660e08d016112f4565b15613d16576040516371f4582960e11b8152600490fd5b604051639e744e2560e01b8152600490fd5b6040516362b439dd60e11b8152600490fd5b604051636a6fed7f60e11b8152600490fd5b60005260046000fd5b61045599989796959493929190600080613b0f565b6040519493926302b67b5760e41b928592906323f2ebc360e21b63d505accf60e01b6064861461494d57856048146148dd578560e0146148bd5750846101001461489e5750836060146147fd57505050610160146147d757636827585760e01b8452600484fd5b83526000928392610164926004830137826e22d473030f116ddee9f6b43ac78ba35af190565b60009794889750602094509160409391610164979387526004870152602486015260148260508701376001601483013560e01c0365ffffffffffff166064860152601882013560e01c608486015260a48501526001601c82013560e01c0365ffffffffffff1660c485015261010060e4850152816101048501528280820161012486013701610144830137826e22d473030f116ddee9f6b43ac78ba35af190565b88600099965089989394508895506101049792505260048501375af190565b9050886000999650899893945088955060e49792505260048501375af190565b506000989550889750879450906101049692939186526004860152602485015260206008602883013592803560e01c60448801526001600482013560e01c036064880152600160848801528360ff1c601b0160a48801520160c48601376001600160ff1b031660e48401525af190565b6000998a995080975089965060e49894959392505260048601526024850152602060246044830135928281604489013760018382013560e01c0360648801528360ff1c601b0160848801520160a48601376001600160ff1b031660c48401525af190565b90959492610366946149e36149ea926149dc6080966149d560a088019c6000890152565b6020870152565b6040850152565b6060830152565b01906001600160a01b03169052565b7f8b73c3c69bb8fe3d512ecc4cf759cc79239f7b179b0ffacaa9a75d522b39400f614a8a7f00000000000000000000000000000000000000000000000000000000000000007f0000000000000000000000000000000000000000000000000000000000000000614a7e614a6b306111ef565b60405195869460208601944692866149b1565b90810382520382611d05565b614a9c614a95825190565b9160200190565b2090565b61034860ff6112fe565b634e487b7160e01b600052602260045260246000fd5b9060016002830492168015614ae0575b6020831014614adb57565b614aaa565b91607f1691614ad0565b80546000939291614b07614afd83614ac0565b8085529360200190565b9160018116908115614b595750600114614b2057505050565b614b339192939450600052602060002090565b916000925b818410614b455750500190565b805484840152602090930192600101614b38565b92949550505060ff1916825215156020020190565b9061034891614aea565b90610366614b9292614b8960405190565b93848092614b6e565b0383611d05565b61034890614b78565b9081614bb2611237610348614aa0565b14614bc1575061034890615a0f565b6103489150614b99565b9092916000936001600160ff1b038216917f7fffffffffffffffffffffffffffffff5d576e7357a4501ddfe92f46681b20a18310614c0a575b50505050565b6020949550916000939160809360405193845260ff1c601b01868401526040830152606082015282805260015afa506000519038808080614c04565b610348600160fd1b6112fe565b614c5e906000612a7a565b61360c614c46565b610455916005913660005b905050615a53565b614c84906000612a7a565b6118df61123760006112fe565b9392600091604491602094614ca4600090565b506040519283526004830152602482015282865af19182614cc25750565b9091503d15614cda5750600160005114601f3d111690565b3b151590565b323314614ce957565b604051631b10b0f960e01b8152600490fd5b61034860fd6112fe565b614d126103486103489290565b6137ca565b614d31614d2961034892612a7a600090565b612a88614cfb565b614d05565b610348600160fa1b6112fe565b610348906124e3614d36565b156127ce573d90565b6000602481602093614d78956370a0823160e01b83526004525afa614d4f565b156103545760005190565b633e3f8f7360e01b92919063095ea7b360e01b90614da48685858585614def565b15614db157505050505050565b614dbf866000858585614def565b15614de75791614dd193918693614def565b15614ddf578080808061390d565b600492508152fd5b600486868152fd5b600093908491604494602097948552600485015260248401525af1600160005114601f3d11163d15171690565b60009160249160209473087cb4f5723746eb8c6610657b739953eb9947eb60641b855260048301525afa156127ce5760005190565b9392614e6063e413f48d61224e565b9460018060a01b0382169260018360f21c169660018460f91c169460018560f01c1661520c575b60018560f11c166151dc575b614eaa60ff8660d81c1660ff8760d01c1683614e1c565b92600080516020615c1a833981519152841473eeeeeeeeeeeeeeeeeeeeeeeeeeeeeeeeeeeeeeee85141792838b1517881516615180575b6040519060ff8860b81c166011811161516f57614fb5946040948e8b94868f956004907f3df02124a6417ed6ddc1f59d44ee1986ed4ae2b8bf5ed0562f7865a837cab67960009a527f2a064e3c5b41b90865b2489ba64833a0e2ad025a394747c5cb7558f1ce7d6503602084015267d2e2833add96994f60c01b8b84015202019d8e9560ff8860e01c16600488015260ff8860e81c1660248801528460448801526064870152600160849760f31c1661515f575b600114615141575060018c60f41c16615131575b02871502905af1614d4f565b156151095760018460f71c16602002519788945b60018160f41c1615614ffa575b50505050505050614fe48190565b8310614fed5750565b826112da61155960405190565b60018160f51c166150d8575b60f61c6001166150a3575b30841861501f575b80614fd6565b1660011461508e579183918373eeeeeeeeeeeeeeeeeeeeeeeeeeeeeeeeeeeeeeee6150589514615079575b63a9059cbb60e01b90614def565b1561506a57505b388381808080615019565b633c9fd93960e21b8152600490fd5b50600080516020615c1a83398151915261504a565b506000809350809281925af161505f5761278f565b9350632e1a7d4d60e01b6000528760045260008060248180600080516020615c1a8339815191525af1156127ce578793615011565b9450630d0e30db60e41b6000526000806004818c600080516020615c1a8339815191525af1156127ce578894615006565b80881660011461512857600161511f3084614d58565b03978894614fc9565b6001303161511f565b93808b6020928601520193614fa9565b308587019081526020018c9052878601850152606090940193614fa9565b9580836020928801520195614f95565b635118e5c160e11b60005260046000fd5b61519760ff8860c81c1660ff8960c01c1685614e1c565b73eeeeeeeeeeeeeeeeeeeeeeeeeeeeeeeeeeeeeeee81146151c7575b6151c290838560405192614d83565b614ee1565b50600080516020615c1a8339815191526151b3565b632e1a7d4d60e01b6000528260045260008060248180600080516020615c1a8339815191525af1614e935761278f565b630d0e30db60e41b60009081528060048186600080516020615c1a8339815191525af1614e875761278f565b929392630325276360e11b94632173563760e21b936001600160a01b0382169360f783901c6001169260a01c63ffffffff1690811561531a575b60405196630240bc6b60e21b600052604060006004818a5afa156153105760603d036147525750633b9aca00841560200251928560200251920292028201910204968188106152fd5750508360008094819460a49463022c0d9f60e01b855280158b0260048601528a0260248501526044840152608060648401528160848401525af11561234f5750565b8552600485018790526024850152604484fd5b873d6000823e3d90fd5b633b6d03409150615272565b610104600091826040949596989761533c600090565b50630251596160e31b9261534f82614d43565b9060018360f71c16998851998a96875260048701528a6024870152604486015289806001146153d55784146153b6575b60a0608486015260a4850188905260c485015260e48401526001600160a01b03165af11561234f5750602002516000039180614fe4565b73fffd8963efd1fc6a506488495d951d5263988d25606486015261537f565b506401000276a4606486015261537f565b60246000808094938194632e1a7d4d60e01b83526004525af11561278f57565b615411906000612a7a565b61541b60006112fe565b81146154275719905090565b5090565b9092919261543b611d638261205d565b938185528183011161035457610366916020850190612037565b61034891369161542b565b610348906112fe565b6122676122616103489290565b909161548c61548760e084016112f4565b615ab3565b1561551d57600092816154a1611237866112fe565b1461550e576154ca6154b96154ee9361123793615455565b6154c4614a95825190565b20615460565b6001600160a01b0390611ae4906117a59087906154e6856116be565b1696016112f4565b0361550257505b6001906103486000615469565b9063dc11ee6b60e01b90565b5050509063b2d25e4960e01b90565b91506155269050565b61553361123760006112fe565b11156154f5576000906374896a7b60e01b90565b6103486103486103489269ffffffffffffffffffff1690565b61034869ffffffffffffffffffff615547565b61557e906000612a7a565b615591615589615560565b80921661139c565b9061559c600061139c565b6001600160a01b038316149283156155b5575b50505090565b6155cb92935090611ae46118586117a5936111e6565b143880806155af565b61034860506112fe565b6155ed6155f591612a7a600090565b612a886155d4565b6155fd612a5d565b1661560860006112fe565b8114159081615615575090565b4291501090565b615627906000612a7a565b61360c614d36565b61034860a06112fe565b615648612a8e91612a7a600090565b612a8861562f565b61045591600491366000614c71565b61566a906000612a7a565b61360c612241565b946156c9906156b86156af886103489d9b976156d1976156a16156d99b9f9d9860006101c08601950190613b43565b8b83036101008d0152613c08565b9a610120890152565b6001600160a01b0316610140870152565b610160850152565b610180830152565b6101a0818503910152613c08565b9294929391906156f78282615ac6565b9093908061570861123760006112fe565b146157615790602096976157388361572c61187f61187f611b35612c5e988c611aaf565b9781611b4660146112fe565b92909161574460405190565b9a8b998a988998631d9671c360e01b5b8a52339360048b01615672565b505050505050908161577d60c0613aa860a061034896016112f4565b90615ad5565b9294929391906157938282615b14565b909390806157a461123760006112fe565b146157e85790602096976157c88361572c61187f61187f611b35612c5e988c611aaf565b9290916157d460405190565b9a8b998a9889986301afff1560e71b615754565b505050505050908161580460c0613aa860a061034896016112f4565b90615b30565b6103486001600160b81b036112fe565b615825906000612a7a565b611ae461580a565b9080821015613eae575090565b615852610348926122079261584d600090565b500390565b1990565b600061587961586e6158686008611210565b85611223565b93612add60ff6112fe565b9101906158896117bb84846116d0565b9181838316146158a857610366936158a0916116d0565b9117906116fb565b60405163527b154b60e11b8152600490fd5b6158c5906000612a7a565b61360c613808565b61045591600691366000614c71565b610348600160f81b6112fe565b6158f4906000612a7a565b61361a6158ff6158dc565b61141d60006112fe565b610455916000913683614c71565b9294806000958160209888959661592c600090565b506040516323b872dd60e01b815260048101989098526024880152604487015261596b575b5050606401925af1600160005114601f3d11163d15171690565b60648501378038615951565b610348600160f71b6112fe565b61598f906000612a7a565b61361a6158ff615977565b6159a9613232604083016112f4565b906159b76103ad60006113a9565b6001600160a01b038316146159ca575090565b6103489150602061323291016112f4565b61045591600191366000614c71565b61045591600791366000614c71565b90610366611d88615a0984612079565b9361205d565b615a1881615b9f565b90615a2b615a2660206112fe565b6159f9565b918252602082015290565b600911156137c557565b9061036682615a36565b61034890615a40565b909182615a6361123760206112fe565b10615a8a5761045592366000905050615a8460208085359501920392615a4a565b92615be3565b505050610455610455615a9d60006112fe565b60003681611afd565b610348600160f91b6112fe565b615abe906000612a7a565b61360c615aa6565b61045591600291366000614c71565b91615ae68382176112a66080611210565b615af361123760006112fe565b14615b0a5761034892615b0591611364565b61138d565b610348920261138d565b61045591600391366000614c71565b9190820180921161135f57565b9091615b428382176112a66080611210565b615b4f61123760006112fe565b14615b7d57615b6d82615b6861034895615b0594611364565b615b23565b615b7760016112fe565b90611349565b615b9082610a0c61034895615b05940290565b615b9a60016112fe565b900390565b615bae615bb391615427600090565b615460565b615bbd60ff6112fe565b16615bc8601f6112fe565b8111615bd15790565b604051632cd44ac360e21b8152600490fd5b63ffffffff602082901b60059590951b94851c8116928301959190941c90931690810392916309605a0160e41b9111614752575056fe000000000000000000000000c02aaa39b223fe8d0a0e5c4f27ead9083c756cc2a2646970667358221220c8f6019bb3955cef085ccdd2be151853cfb982f341f72236967fe5de6e4a07d264736f6c63430008170033",
  "linkReferences": {},
  "deployedLinkReferences": {}
}